{
  "contractName": "CampaignContract",
  "abi": [
    {
      "constant": true,
      "inputs": [
        {
          "name": "",
          "type": "uint256"
        }
      ],
      "name": "campaignAddressesList",
      "outputs": [
        {
          "name": "",
          "type": "address"
        }
      ],
      "payable": false,
      "stateMutability": "view",
      "type": "function"
    },
    {
      "inputs": [],
      "payable": false,
      "stateMutability": "nonpayable",
      "type": "constructor"
    },
    {
      "anonymous": false,
      "inputs": [
        {
          "indexed": false,
          "name": "startDate",
          "type": "uint256"
        },
        {
          "indexed": false,
          "name": "now",
          "type": "uint256"
        },
        {
          "indexed": false,
          "name": "endDate",
          "type": "uint256"
        },
        {
          "indexed": false,
          "name": "campaignAddress",
          "type": "address"
        }
      ],
      "name": "CampaignActive",
      "type": "event"
    },
    {
      "anonymous": false,
      "inputs": [
        {
          "indexed": false,
          "name": "startDate",
          "type": "uint256"
        },
        {
          "indexed": false,
          "name": "endDate",
          "type": "uint256"
        },
        {
          "indexed": false,
          "name": "retailer",
          "type": "address"
        },
        {
          "indexed": false,
          "name": "totalBudget",
          "type": "uint256"
        },
        {
          "indexed": false,
          "name": "rewardAmount",
          "type": "uint256"
        }
      ],
      "name": "CampaignCreated",
      "type": "event"
    },
    {
      "anonymous": false,
      "inputs": [
        {
          "indexed": false,
          "name": "from",
          "type": "address"
        },
        {
          "indexed": false,
          "name": "to",
          "type": "address"
        }
      ],
      "name": "ShopperRewarded",
      "type": "event"
    },
    {
      "anonymous": false,
      "inputs": [
        {
          "indexed": false,
          "name": "from",
          "type": "address"
        },
        {
          "indexed": false,
          "name": "amount",
          "type": "uint256"
        }
      ],
      "name": "ContractFunded",
      "type": "event"
    },
    {
      "anonymous": false,
      "inputs": [
        {
          "indexed": false,
          "name": "retailer",
          "type": "address"
        },
        {
          "indexed": false,
          "name": "amount",
          "type": "uint256"
        }
      ],
      "name": "FundsReleased",
      "type": "event"
    },
    {
      "constant": false,
      "inputs": [
        {
          "name": "startDate",
          "type": "uint256"
        },
        {
          "name": "endDate",
          "type": "uint256"
        },
        {
          "name": "rewardAmount",
          "type": "uint256"
        }
      ],
      "name": "createCampaign",
      "outputs": [
        {
          "name": "rowNumber",
          "type": "uint256"
        }
      ],
      "payable": true,
      "stateMutability": "payable",
      "type": "function"
    },
    {
      "constant": true,
      "inputs": [
        {
          "name": "campaignAddress",
          "type": "address"
        }
      ],
      "name": "isActive",
      "outputs": [
        {
          "name": "campaignIsActive",
          "type": "bool"
        }
      ],
      "payable": false,
      "stateMutability": "view",
      "type": "function"
    },
    {
      "constant": true,
      "inputs": [],
      "name": "getActiveCampaigns",
      "outputs": [
        {
          "name": "addressesList",
          "type": "address[]"
        }
      ],
      "payable": false,
      "stateMutability": "view",
      "type": "function"
    },
    {
      "constant": false,
      "inputs": [
        {
          "name": "retailer",
          "type": "address"
        }
      ],
      "name": "terminateCampaign",
      "outputs": [],
      "payable": false,
      "stateMutability": "nonpayable",
      "type": "function"
    },
    {
      "constant": true,
      "inputs": [
        {
          "name": "_to",
          "type": "address"
        },
        {
          "name": "_from",
          "type": "address"
        }
      ],
      "name": "shopperHasNotBeenRewarded",
      "outputs": [
        {
          "name": "notRewarded",
          "type": "bool"
        }
      ],
      "payable": false,
      "stateMutability": "view",
      "type": "function"
    },
    {
      "constant": false,
      "inputs": [
        {
          "name": "_to",
          "type": "address"
        }
      ],
      "name": "rewardShopper",
      "outputs": [],
      "payable": false,
      "stateMutability": "nonpayable",
      "type": "function"
    },
    {
      "constant": false,
      "inputs": [],
      "name": "checkCampaignsValidity",
      "outputs": [],
      "payable": false,
      "stateMutability": "nonpayable",
      "type": "function"
    },
    {
      "constant": true,
      "inputs": [
        {
          "name": "retailer",
          "type": "address"
        }
      ],
      "name": "getBalance",
      "outputs": [
        {
          "name": "retailerBalance",
          "type": "uint256"
        }
      ],
      "payable": false,
      "stateMutability": "view",
      "type": "function"
    }
  ],
  "bytecode": "0x608060405234801561001057600080fd5b50336000806101000a81548173ffffffffffffffffffffffffffffffffffffffff021916908373ffffffffffffffffffffffffffffffffffffffff1602179055506113c9806100606000396000f300608060405260043610610099576000357c0100000000000000000000000000000000000000000000000000000000900463ffffffff1680633480c8371461009e5780636fa33f56146100e15780639f8a13d7146100f8578063a0c9249914610153578063abe1c6e6146101ce578063c362b15614610211578063e6a298e21461027d578063f69d3158146102ea578063f8b2cb4f14610332575b600080fd5b3480156100aa57600080fd5b506100df600480360381019080803573ffffffffffffffffffffffffffffffffffffffff169060200190929190505050610389565b005b3480156100ed57600080fd5b506100f661043e565b005b34801561010457600080fd5b50610139600480360381019080803573ffffffffffffffffffffffffffffffffffffffff1690602001909291905050506105d7565b604051808215151515815260200191505060405180910390f35b34801561015f57600080fd5b506101b4600480360381019080803573ffffffffffffffffffffffffffffffffffffffff169060200190929190803573ffffffffffffffffffffffffffffffffffffffff169060200190929190505050610769565b604051808215151515815260200191505060405180910390f35b3480156101da57600080fd5b5061020f600480360381019080803573ffffffffffffffffffffffffffffffffffffffff169060200190929190505050610861565b005b34801561021d57600080fd5b50610226610b01565b6040518080602001828103825283818151815260200191508051906020019060200280838360005b8381101561026957808201518184015260208101905061024e565b505050509050019250505060405180910390f35b34801561028957600080fd5b506102a860048036038101908080359060200190929190505050610ced565b604051808273ffffffffffffffffffffffffffffffffffffffff1673ffffffffffffffffffffffffffffffffffffffff16815260200191505060405180910390f35b61031c600480360381019080803590602001909291908035906020019092919080359060200190929190505050610d2b565b6040518082815260200191505060405180910390f35b34801561033e57600080fd5b50610373600480360381019080803573ffffffffffffffffffffffffffffffffffffffff16906020019092919050505061115a565b6040518082815260200191505060405180910390f35b610392816111a3565b6000600360008373ffffffffffffffffffffffffffffffffffffffff1673ffffffffffffffffffffffffffffffffffffffff168152602001908152602001600020541415156103e057600080fd5b6000600160008373ffffffffffffffffffffffffffffffffffffffff1673ffffffffffffffffffffffffffffffffffffffff16815260200190815260200160002060040160006101000a81548160ff02191690831515021790555050565b60008090505b6002805490508163ffffffff1610156105d457426001600060028463ffffffff1681548110151561047157fe5b9060005260206000200160009054906101000a900473ffffffffffffffffffffffffffffffffffffffff1673ffffffffffffffffffffffffffffffffffffffff1673ffffffffffffffffffffffffffffffffffffffff168152602001908152602001600020600101541080156105795750600115156001600060028463ffffffff168154811015156104ff57fe5b9060005260206000200160009054906101000a900473ffffffffffffffffffffffffffffffffffffffff1673ffffffffffffffffffffffffffffffffffffffff1673ffffffffffffffffffffffffffffffffffffffff16815260200190815260200160002060040160009054906101000a900460ff161515145b156105c7576105c660028263ffffffff1681548110151561059657fe5b9060005260206000200160009054906101000a900473ffffffffffffffffffffffffffffffffffffffff16610389565b5b8080600101915050610444565b50565b6000816001801515600160008473ffffffffffffffffffffffffffffffffffffffff1673ffffffffffffffffffffffffffffffffffffffff16815260200190815260200160002060040160009054906101000a900460ff16151514151561063d57600080fd5b83600360008273ffffffffffffffffffffffffffffffffffffffff1673ffffffffffffffffffffffffffffffffffffffff16815260200190815260200160002054600160008373ffffffffffffffffffffffffffffffffffffffff1673ffffffffffffffffffffffffffffffffffffffff168152602001908152602001600020600301541015156106cd57600080fd5b42600160008773ffffffffffffffffffffffffffffffffffffffff1673ffffffffffffffffffffffffffffffffffffffff1681526020019081526020016000206000015410801561075f575042600160008773ffffffffffffffffffffffffffffffffffffffff1673ffffffffffffffffffffffffffffffffffffffff16815260200190815260200160002060010154115b9350505050919050565b6000806000600160008573ffffffffffffffffffffffffffffffffffffffff1673ffffffffffffffffffffffffffffffffffffffff1681526020019081526020016000209150600090505b81600501805490508163ffffffff161015610854578473ffffffffffffffffffffffffffffffffffffffff16826005018263ffffffff168154811015156107f757fe5b9060005260206000200160009054906101000a900473ffffffffffffffffffffffffffffffffffffffff1673ffffffffffffffffffffffffffffffffffffffff1614156108475760009250610859565b80806001019150506107b4565b600192505b505092915050565b600080339150600160008373ffffffffffffffffffffffffffffffffffffffff1673ffffffffffffffffffffffffffffffffffffffff16815260200190815260200160002060030154905080600360008473ffffffffffffffffffffffffffffffffffffffff1673ffffffffffffffffffffffffffffffffffffffff168152602001908152602001600020541015610901576108fc33610389565b610afc565b61090a826105d7565b151561091557600080fd5b61091f8383610769565b151561092a57600080fd5b8273ffffffffffffffffffffffffffffffffffffffff166108fc829081150290604051600060405180830381858888f19350505050158015610970573d6000803e3d6000fd5b50600160008373ffffffffffffffffffffffffffffffffffffffff1673ffffffffffffffffffffffffffffffffffffffff1681526020019081526020016000206005018390806001815401808255809150509060018203906000526020600020016000909192909190916101000a81548173ffffffffffffffffffffffffffffffffffffffff021916908373ffffffffffffffffffffffffffffffffffffffff1602179055505080600360008473ffffffffffffffffffffffffffffffffffffffff1673ffffffffffffffffffffffffffffffffffffffff168152602001908152602001600020600082825403925050819055507f5952e704080cbdfc6e860e739cb4aa5915b4dec7e815e26d73caada3353a48ee8284604051808373ffffffffffffffffffffffffffffffffffffffff1673ffffffffffffffffffffffffffffffffffffffff1681526020018273ffffffffffffffffffffffffffffffffffffffff1673ffffffffffffffffffffffffffffffffffffffff1681526020019250505060405180910390a15b505050565b606080600080600280549050604051908082528060200260200182016040528015610b3b5781602001602082028038833980820191505090505b50925060009150600090505b6002805490508163ffffffff161015610ce4576001600060028363ffffffff16815481101515610b7357fe5b9060005260206000200160009054906101000a900473ffffffffffffffffffffffffffffffffffffffff1673ffffffffffffffffffffffffffffffffffffffff1673ffffffffffffffffffffffffffffffffffffffff16815260200190815260200160002060040160009054906101000a900460ff168015610c395750610c3860028263ffffffff16815481101515610c0857fe5b9060005260206000200160009054906101000a900473ffffffffffffffffffffffffffffffffffffffff166105d7565b5b15610cd75760028163ffffffff16815481101515610c5357fe5b9060005260206000200160009054906101000a900473ffffffffffffffffffffffffffffffffffffffff16838363ffffffff16815181101515610c9257fe5b9060200190602002019073ffffffffffffffffffffffffffffffffffffffff16908173ffffffffffffffffffffffffffffffffffffffff168152505081806001019250505b8080600101915050610b47565b82935050505090565b600281815481101515610cfc57fe5b906000526020600020016000915054906101000a900473ffffffffffffffffffffffffffffffffffffffff1681565b600080600033915034905060001515600160008473ffffffffffffffffffffffffffffffffffffffff1673ffffffffffffffffffffffffffffffffffffffff16815260200190815260200160002060040160009054906101000a900460ff161515141515610d9857600080fd5b8381111515610da657600080fd5b85600160008473ffffffffffffffffffffffffffffffffffffffff1673ffffffffffffffffffffffffffffffffffffffff1681526020019081526020016000206000018190555084600160008473ffffffffffffffffffffffffffffffffffffffff1673ffffffffffffffffffffffffffffffffffffffff1681526020019081526020016000206001018190555080600160008473ffffffffffffffffffffffffffffffffffffffff1673ffffffffffffffffffffffffffffffffffffffff1681526020019081526020016000206002018190555083600160008473ffffffffffffffffffffffffffffffffffffffff1673ffffffffffffffffffffffffffffffffffffffff1681526020019081526020016000206003018190555060018060008473ffffffffffffffffffffffffffffffffffffffff1673ffffffffffffffffffffffffffffffffffffffff16815260200190815260200160002060040160006101000a81548160ff021916908315150217905550600160008373ffffffffffffffffffffffffffffffffffffffff1673ffffffffffffffffffffffffffffffffffffffff1681526020019081526020016000206005016000610f6a9190611357565b7ffe767f0f47c1efcf7ce72b57f34ff6dccd6391f3f16dcc394de02572417149f48686848488604051808681526020018581526020018473ffffffffffffffffffffffffffffffffffffffff1673ffffffffffffffffffffffffffffffffffffffff1681526020018381526020018281526020019550505050505060405180910390a134600360003373ffffffffffffffffffffffffffffffffffffffff1673ffffffffffffffffffffffffffffffffffffffff168152602001908152602001600020600082825401925050819055507f0939f6f4877faf071412e527bc4c6d0bd65ad077e52b57334f7765265647a7f133600160003373ffffffffffffffffffffffffffffffffffffffff1673ffffffffffffffffffffffffffffffffffffffff16815260200190815260200160002060020154604051808373ffffffffffffffffffffffffffffffffffffffff1673ffffffffffffffffffffffffffffffffffffffff1681526020018281526020019250505060405180910390a1600160028390806001815401808255809150509060018203906000526020600020016000909192909190916101000a81548173ffffffffffffffffffffffffffffffffffffffff021916908373ffffffffffffffffffffffffffffffffffffffff16021790555003925050509392505050565b6000600360008373ffffffffffffffffffffffffffffffffffffffff1673ffffffffffffffffffffffffffffffffffffffff168152602001908152602001600020549050919050565b6000816001801515600160008473ffffffffffffffffffffffffffffffffffffffff1673ffffffffffffffffffffffffffffffffffffffff16815260200190815260200160002060040160009054906101000a900460ff16151514151561120957600080fd5b600360008573ffffffffffffffffffffffffffffffffffffffff1673ffffffffffffffffffffffffffffffffffffffff16815260200190815260200160002054925060008311151561125a57600080fd5b8373ffffffffffffffffffffffffffffffffffffffff166108fc849081150290604051600060405180830381858888f193505050501580156112a0573d6000803e3d6000fd5b506000600360008673ffffffffffffffffffffffffffffffffffffffff1673ffffffffffffffffffffffffffffffffffffffff168152602001908152602001600020819055507f221c08a06b07a64803b3787861a3f276212fcccb51c2e6234077a9b8cb13047a8484604051808373ffffffffffffffffffffffffffffffffffffffff1673ffffffffffffffffffffffffffffffffffffffff1681526020018281526020019250505060405180910390a150505050565b50805460008255906000526020600020908101906113759190611378565b50565b61139a91905b8082111561139657600081600090555060010161137e565b5090565b905600a165627a7a72305820d447b4c9a3be32c6accf90781a0298e383e85b17ea19ec8592b0bd85c4a5a8ff0029",
  "source": "pragma solidity ^0.4.23;\n\ncontract CampaignContract {\n  address private admin; // the owner of the contract i.e the adminstrator\n\n  struct Campaign {\n  uint256 startDate;\n  uint256 endDate;\n  uint256 totalBudget; // in WEI\n  uint256 rewardAmount; // in WEI\n  bool isCampaign;\n  address[] rewarded;\n  }\n\n  mapping (address => Campaign) private campaigns;\n  address[] public campaignAddressesList;\n\n  mapping (address => uint) balance;\n\n  event CampaignActive(uint256 startDate, uint256 now, uint256 endDate, address campaignAddress);\n  event CampaignCreated(uint256 startDate, uint256 endDate, address retailer, uint256 totalBudget, uint256 rewardAmount);\n  event ShopperRewarded(address from, address to);\n  event ContractFunded(address from, uint256 amount);\n  event FundsReleased(address retailer, uint256 amount);\n\n  function createCampaign(uint256 startDate, uint256 endDate, uint256 rewardAmount)\n   public payable returns(uint rowNumber){\n     address campaignAddress=msg.sender;\n     uint256 budget=msg.value;\n     require(campaigns[campaignAddress].isCampaign==false);\n     require(budget>rewardAmount);\n       campaigns[campaignAddress].startDate = startDate;\n       campaigns[campaignAddress].endDate = endDate;\n       campaigns[campaignAddress].totalBudget = budget;\n       campaigns[campaignAddress].rewardAmount = rewardAmount;\n       campaigns[campaignAddress].isCampaign = true;\n       delete campaigns[campaignAddress].rewarded;\n       emit CampaignCreated(startDate, endDate, campaignAddress, budget, rewardAmount);\n       balance[msg.sender] += msg.value;\n       emit ContractFunded(msg.sender, campaigns[msg.sender].totalBudget);\n       return campaignAddressesList.push(campaignAddress) - 1;\n   }\n\n  modifier campaignExists(address campaignAddress, bool exists){\n      require(campaigns[campaignAddress].isCampaign==exists);\n      _;\n  }\n\n  modifier campaignHasFunds(address campaignAddress) {\n    require(campaigns[campaignAddress].rewardAmount < balance[campaignAddress]);\n    _;\n  }\n\n  function isActive(address campaignAddress) public view\n      campaignExists(campaignAddress, true)\n      campaignHasFunds(campaignAddress)\n      returns(bool campaignIsActive) {\n    return(campaigns[campaignAddress].startDate < now && campaigns[campaignAddress].endDate > now);\n  }\n\n  function getActiveCampaigns() public view returns(address[] addressesList) {\n    address[] memory activeCampaignsList = new address[](campaignAddressesList.length);\n    uint32 counter = 0;\n    for(uint32 i=0; i<campaignAddressesList.length;i++ ) {\n      if(campaigns[campaignAddressesList[i]].isCampaign && isActive(campaignAddressesList[i])) {\n        activeCampaignsList[counter]=campaignAddressesList[i];\n        counter++;\n      }\n    }\n    return activeCampaignsList;\n  }\n\n  function terminateCampaign(address retailer) public {\n    releaseFunds(retailer);\n    require(balance[retailer]==0); // Keep track of the campaign if there are remaining funds\n    campaigns[retailer].isCampaign = false; // Reset to allow the retailer to create a new campaign\n  }\n\n  function releaseFunds(address retailer) internal campaignExists(retailer,true){\n    uint256 retailerBalance = balance[retailer];\n    require(retailerBalance>0);\n    retailer.transfer(retailerBalance);\n    balance[retailer] = 0; // Set balance to 0 to prevent double transfer\n    emit FundsReleased(retailer,retailerBalance);\n    }\n\n  function shopperHasNotBeenRewarded(address _to, address _from) view returns(bool notRewarded) {\n    Campaign storage currentCampaign = campaigns[_from];\n      for(uint32 i=0; i<currentCampaign.rewarded.length;i++) {\n        if(currentCampaign.rewarded[i]==_to) {\n          return false;\n        }\n      }\n      return true;\n  }\n\n  function rewardShopper(address _to) public {\n    address retailer = msg.sender;\n    uint256 reward = campaigns[retailer].rewardAmount;\n    if(balance[retailer]<reward) {\n      terminateCampaign(msg.sender);\n    }\n    else {\n      require(isActive(retailer));\n      require(shopperHasNotBeenRewarded(_to,retailer));\n      _to.transfer(reward);\n      campaigns[retailer].rewarded.push(_to);\n      balance[retailer] -= reward;\n      emit ShopperRewarded(retailer, _to);\n      }\n  }\n\n  function checkCampaignsValidity() public {\n    for(uint32 i=0;i<campaignAddressesList.length;i++) {\n      if((campaigns[campaignAddressesList[i]].endDate < now) && (campaigns[campaignAddressesList[i]].isCampaign==true)) {\n        terminateCampaign(campaignAddressesList[i]);\n      }\n    }\n  }\n\n  function getBalance(address retailer) view public returns(uint retailerBalance){\n    return balance[retailer];\n  }\n\n  /* Sets the address creating the contract as the contract admin */\n  constructor() public {\n    admin = msg.sender;\n  }\n}\n",
  "sourcePath": "/Users/asu3797/Desktop/URP/Campaign/contracts/Campaign.sol",
  "compiler": {
    "name": "solc",
    "version": "0.4.24+commit.e67f0147.Emscripten.clang"
  },
  "schemaVersion": "2.0.1",
  "updatedAt": "2018-12-01T20:59:21.279Z"
}